:020000040800F2
:100000009006002089010008910100089301000872
:100010009501000897010008990100080000000000
:100020000000000000000000000000009B0100082C
:100030009D010008000000009F010008F106000873
:10004000A3010008A3010008A3010008A301000800
:10005000A3010008A3010008A3010008A3010008F0
:10006000A3010008A3010008A3010008A3010008E0
:10007000A3010008A3010008A3010008A3010008D0
:10008000A3010008A3010008A3010008A3010008C0
:10009000A3010008A3010008A3010008A3010008B0
:1000A000A301000855070008A3010008A3010008E8
:1000B000410B0008590B0008790B0008A301000848
:1000C000A3010008A3010008A3010008A301000880
:1000D000A3010008011200082112000841120008C3
:1000E000A3010008A3010008A301000800F002F822
:1000F00000F03AF80AA090E8000C82448344AAF188
:100100000107DA4501D100F02FF8AFF2090EBAE885
:100110000F0013F0010F18BFFB1A43F0010318473B
:10012000981C0000B81C0000103A24BF78C878C1A1
:10013000FAD8520724BF30C830C144BF04680C60ED
:10014000704700000023002400250026103A28BF35
:1001500078C1FBD8520728BF30C148BF0B60704739
:100160001FB51FBD10B510BD00F033F81146FFF7E5
:10017000F7FF01F0B0F800F051F803B4FFF7F2FF19
:1001800003BC01F0A6F80000094880470948004771
:10019000FEE7FEE7FEE7FEE7FEE7FEE7FEE7FEE737
:1001A000FEE7FEE704480549054A064B7047000094
:1001B000F5060008ED0000089000002090060020E1
:1001C00090020020900200207047704770477047EF
:1001D0007047754600F02CF8AE4605006946534658
:1001E00020F00700854618B020B5FFF7DBFFBDE81B
:1001F00020404FF000064FF000074FF000084FF08E
:10020000000B21F00701AC46ACE8C009ACE8C0091E
:10021000ACE8C009ACE8C0098D46704710B504468B
:10022000AFF300802046BDE81040FFF7A6BF0000F6
:1002300000487047300000202DE9F04102460025BB
:100240000026002000230024002791F803C00CF0B2
:100250000F0591F803C00CF0100CBCF1000F03D097
:1002600091F802C04CEA050591F800C0BCF1000FFE
:1002700031D0146800202BE04FF0010C0CFA00F391
:10028000B1F800C00CEA03069E4220D183004FF073
:100290000F0C0CFA03F7BC4305FA03FC4CEA040408
:1002A00091F803C0BCF1280F06D14FF0010C0CFAF5
:1002B00000FCC2F814C00AE091F803C0BCF1480F7A
:1002C00005D14FF0010C0CFA00FCC2F810C0401C24
:1002D0000828D1D31460B1F800C0BCF1FF0F34DDA1
:1002E000546800202EE000F1080C4FF0010808FAD5
:1002F0000CF3B1F800C00CEA03069E4221D1830042
:100300004FF00F0C0CFA03F7BC4305FA03FC4CEA60
:10031000040491F803C0BCF1280F05D100F1080CCA
:1003200008FA0CF8C2F8148091F803C0BCF1480F29
:1003300007D100F1080C4FF0010808FA0CF8C2F8D8
:100340001080401C0828CED35460BDE8F081000026
:1003500070B5002100230F22C47804B3154C246823
:1003600004F4E064C4F5E064210AC1F10403CA4066
:10037000447804FA03F184781440214309010E4CB7
:100380000678A155047804F01F050124AC400578D7
:100390006D11AD0005F1E025C5F8004109E00478D4
:1003A00004F01F050124AC40044D0678761145F891
:1003B000264070BD0CED00E000E400E080E100E0CC
:1003C00002490143024A1160704700000000FA052B
:1003D0000CED00E029B1064A12690243044B1A6190
:1003E00004E0034A12698243014B1A61704700001E
:1003F0000010024029B1064A92690243044B9A61F7
:1004000004E0034A92698243014B9A6170470000FD
:100410000010024029B1064AD2680243044BDA6058
:1004200004E0034AD2688243014BDA60704700005F
:10043000001002402DE9F0438DB001210C20FFF7A0
:10044000D9FF0121C802FFF7D5FF4FF46040ADF896
:10045000100018208DF8130003208DF8120004A955
:100460005F48FFF7E9FE4FF4E060ADF81000182098
:100470008DF8130003208DF8120004A95948FFF7E6
:10048000DBFE594800F0C4FB58490968962201FB7D
:1004900002F001F052F9064632460B46002054495C
:1004A00000F0C6FF04460022524B01F06FFA80466E
:1004B00001F016F980B2ADF828000720ADF824004D
:1004C00000208DF82C00ADF82A00ADF8260009A90F
:1004D000454800F0BBFD0121434800F077FB0122B5
:1004E0001146414800F099FC6020ADF80000012061
:1004F000ADF802000420ADF804000020ADF80800BB
:10050000ADF80A00ADF80C00ADF80E003A483B49D2
:10051000098830F8210080B2ADF8060069463248FB
:1005200000F084FC34483649098830F8210080B254
:10053000ADF8060069462C4800F0CEFC2E48314943
:10054000098830F8210080B2ADF8060069462648D7
:1005500000F022FD0821244800F0B4FC08212248C4
:1005600000F00CFD0821204800F066FD4FF4E0602B
:10057000FFF726FF19208DF8300000208DF831009C
:1005800001208DF832008DF833000CA8FFF7E0FE53
:100590000020ADF81400ADF81600ADF818001B20CF
:1005A000ADF81A000020ADF81C004FF40050ADF873
:1005B0001E004000ADF8200005A90B4800F0F6FA37
:1005C0000121094800F0E6FA0121074800F004FB88
:1005D0000121054800F00CFB0DB0BDE8F0830000E0
:1005E000000C014000080140002C014000000020E8
:1005F000882A61410000F03F601B00081C000020B9
:100600001E0000202000002010B500F001F810BDF1
:100610000CB50020019000903348006840F4803011
:100620003149086000BF3048006800F40030009095
:100630000198401C0190009818B90198B0F5A06F7E
:10064000F1D12948006800F4003010B10120009079
:1006500001E0002000900098012843D12348006861
:1006600040F01000214908600846006820F00300AF
:1006700008600846006840F0020008601A484068B8
:10068000194948600846406848600846406840F498
:10069000806048600846406820F47C104860084646
:1006A000406840F4E81048600846006840F08070F8
:1006B000086000BF0C48006800F000700028F9D006
:1006C0000948406820F00300074948600846406830
:1006D00040F00200486000BF0348406800F00C0092
:1006E0000828F9D10CBD0000001002400020024093
:1006F0007047000010B51348006840F00100114930
:10070000086008464068104908400E49486008469D
:1007100000680E4908400B4908600846006820F44C
:10072000802008600846406820F4FE0048604FF4CE
:100730001F008860FFF768FF4FF000600449086001
:1007400010BD0000001002400000FFF8FFFFF6FEA1
:1007500008ED00E02DE9FC5F0121EA4800F04CFBC8
:1007600001287CD1E8480068322814DCE64800689B
:1007700000F0E3FF8046E54AE54B01F009F8064644
:100780000022E44B00F054FE0446E34AE34B00F041
:10079000A7FDE34A03C2E348E349098850F8210072
:1007A000B0F5804F3BD9DF49DF4A128851F822105B
:1007B000A1F5804000F0D8FF0646D9480CC8304665
:1007C00000F0E6FF044600F08BFFD84908600846B9
:1007D000006800F5804000F0C7FF06460F46CA4992
:1007E0000968962201FB02F000F0A7FF804642460E
:1007F0000B460020CE4900F01BFE824632463B46A7
:1008000000F0C6FF0022CB4BCDE9000100F010FE46
:10081000044600F065FFBB493431088043E0C1481D
:10082000C149098850F82100B0F5804F3BD8BD4937
:10083000BD4A128851F82210C1F5804000F094FFA3
:100840000646B7480CC8304600F0A2FF044600F048
:1008500047FFB64908600968C1F5804000E04BE1F8
:1008600000F082FF04460D46A7490968962201FB65
:1008700002F000F062FF064632460B460020AC490B
:1008800000F0D6FD22462B46CDE9000100F080FFA6
:1008900080460022A74B00F0CBFD824600F020FFEF
:1008A0009849343108809F48A349098850F82100AD
:1008B000B0F5804F3AD99B499F4A128851F82210CF
:1008C000A1F5804000F050FF064695480CC8304620
:1008D00000F05EFF044600F003FF944908600846FC
:1008E000006800F5804000F03FFFCDE90001864937
:1008F0000968962201FB02F000F01FFF064632460F
:100900000B4600208A4900F093FD8046DDE9002374
:1009100000F03EFF04460022864B00F089FD82462F
:1009200000F0DEFE77493831088041E07D48824999
:10093000098850F82100B0F5804F39D879497E4AAE
:10094000128851F82210C1F5804000F00DFF0646D4
:1009500073480CC8304600F01BFF044600F0C0FE90
:10096000724908600968C1F5804000F0FDFE064646
:100970000F4665490968962201FB02F000F0DDFE92
:10098000804642460B460020694900F051FD8246F0
:1009900032463B4600F0FCFE04460022654B00F068
:1009A00047FDCDE9000100F09BFE56493831088033
:1009B0005C486249098850F82100B0F5804F3BD966
:1009C00058495E4A128851F82210A1F5804000F083
:1009D000CBFE064652480CC8304600F0D9FE04460D
:1009E00000F07EFE514908600846006800F580402E
:1009F00000F0BAFE8046894643490968962201FB09
:100A000002F000F09AFE064632460B4600204849A6
:100A100000F00EFD824642464B4600F0B9FE044609
:100A20000022444B00F004FDCDE9000100F058FE27
:100A300034493C31088041E03A484049098850F83F
:100A40002100B0F5804F39D836493C4A128851F818
:100A50002210C1F5804000F087FE064630480CC8E1
:100A6000304600F095FE044600F03AFE2F4908603B
:100A70000968C1F5804000F077FE8046894622492A
:100A80000968962201FB02F000F057FE0646324646
:100A90000B460020264900F0CBFC044642464B465C
:100AA00000F076FE82460022224B00F0C1FCCDE928
:100AB000000100F015FE13493C3108801A480088F7
:100AC000401C962190FBF1F201FB120016490880B0
:100AD00019480088401C962190FBF1F201FB12009E
:100AE0001549088015480088401C962190FBF1F2BA
:100AF00001FB1200114908800121024800F069F849
:100B0000BDE8FC9F002C014000000020CDCCCCCCE7
:100B1000CCCCEC3F000049409A9999999999B93FFA
:100B200010000020601B00081C000020180000209E
:100B3000882A6141C0FFDF401E0000202000002005
:100B400010B50121880700F057F918B10121880775
:100B500000F03FF810BD000010B50121054800F07D
:100B60004BF928B10121034800F033F800F0C0FA36
:100B700010BD00000004004010B50121044800F041
:100B80003BF918B10121024800F023F810BD000024
:100B90000008004021B1028842F08002028004E097
:100BA00002884FF67F731A40028070470A884B888C
:100BB0001A438B881A43CB881A430B891A434B89F3
:100BC0001A438B891A43A0F844207047CA43028213
:100BD0007047CA430282704721B1028842F0010285
:100BE000028004E002884FF6FE731A4002807047CC
:100BF00031B1B0F8442042F40042A0F8442005E0AE
:100C0000B0F84420C2F30E02A0F844207047000060
:100C100010B504466848844208D10121C014FFF78A
:100C2000F9FB0021E014FFF7F5FBC4E0B4F1804FBD
:100C300008D101210846FFF7CDFB00210120FFF775
:100C4000C9FBB8E05D48844208D101210220FFF7CA
:100C5000C1FB00210220FFF7BDFBACE058488442F5
:100C600008D101210420FFF7B5FB00210420FFF784
:100C7000B1FBA0E05348844208D101210820FFF7CE
:100C8000A9FB00210820FFF7A5FB94E04E48844211
:100C900008D101211020FFF79DFB00211020FFF754
:100CA00099FB88E04948844208D101212020FFF7C0
:100CB00091FB00212020FFF78DFB7CE0444884421B
:100CC00008D101214014FFF7A5FB00216014FFF7B4
:100CD000A1FB70E03F48844209D10121C804FFF71D
:100CE00099FB00214FF40020FFF794FB63E03A48A2
:100CF000844209D101210805FFF78CFB00214FF444
:100D00008010FFF787FB56E03448844209D1012167
:100D10004805FFF77FFB00214FF40010FFF77AFB37
:100D200049E02F48844208D101214020FFF752FBBF
:100D300000214020FFF74EFB3DE02A48844208D1C5
:100D400001218020FFF746FB00218020FFF742FBB6
:100D500031E02548844208D101218015FFF73AFB94
:100D60000021A015FFF736FB25E02048844209D179
:100D700001210804FFF74EFB00214FF48030FFF7FC
:100D800049FB18E01A48844209D101214804FFF7C1
:100D900041FB00214FF40030FFF73CFB0BE015480E
:100DA000844208D101218804FFF734FB00214FF46D
:100DB0008020FFF72FFB10BD002C014000040040F5
:100DC00000080040000C00400010004000140040EB
:100DD00000340140004C01400050014000540140EB
:100DE00000180040001C004000200040004001406E
:100DF000004401400048014030B502460020002375
:100E00000024158A05EA0103958905EA010413B156
:100E10000CB1012000E0002030BD1AB183890B43E2
:100E2000838102E083898B438381704770B50024FE
:100E300000220023058C4FF6FE7635400584028C97
:100E40008388048B4FF68F752C40B51E2C400D887F
:100E50002C43751E2A400D892A434D882A43144D80
:100E6000A8420BD0134DA84208D0134DA84205D07C
:100E7000124DA84202D0124DA84213D14FF6F77579
:100E80002A404D892A434FF6FB752A408D882A4314
:100E90004FF6FF652B404FF6FF552B408D892B43B6
:100EA000CD892B4383800483CD888586028470BDE1
:100EB000002C01400034014000400140004401404A
:100EC000004801400A460021018B4FF6F773194094
:100ED000114301837047000070B5002400220023F5
:100EE000058C4FF6EF7635400584028C8388048BA1
:100EF00048F6FF752C404FF6FF452C400D884FF605
:100F0000FF7606EA05252C434FF6DF752A400D894A
:100F100006EA05152A434D8806EA05152A43154DAC
:100F2000A84202D0144DA8421DD14FF67F752A4029
:100F30004D894FF6FF7606EA05152A434FF6BF7531
:100F40002A408D8806EA05152A434FF6FF352B40C7
:100F50004FF2FF752B408D8906EA85052B43CD891D
:100F600006EA85052B4383800483CD8805870284A8
:100F700070BD0000002C0140003401400A460021F1
:100F8000018B4FF2FF7319404FF6FF7303EA022300
:100F9000194301837047000070B50024002200232C
:100FA000058C4FF6FF6635400584028C8388848B60
:100FB0004FF68F752C404FF6FC752C400D882C4356
:100FC0004FF6FF552A400D894FF6FF7606EA0525B4
:100FD0002A434D8806EA05252A43154DA84202D02A
:100FE000144DA8421DD14FF2FF752A404D894FF68E
:100FF000FF7606EA05252A434FF6FF352A408D88FD
:1010000006EA05252A434EF6FF752B404DF6FF757F
:101010002B408D8906EA05152B43CD8906EA051577
:101020002B4383808483CD888587028470BD000034
:10103000002C0140003401400A460021818B4FF60C
:10104000F773194011438183704700000022028822
:101050001D4B98420ED01D4B98420BD0B0F1804FE3
:1010600008D01B4B984205D01A4B984202D01A4B1D
:10107000984204D14FF68F731A404B881A43174B8E
:10108000984207D0164B984204D04FF6FF431A40BF
:10109000CB881A4302808B8883850B8803850A4B93
:1010A00098420BD0094B984208D00E4B984205D07D
:1010B0000D4B984202D00D4B984201D10B7A03861A
:1010C0000123838270470000002C0140003401405E
:1010D0000004004000080040000C004000100040E8
:1010E000001400400040014000440140004801401D
:1010F0003A480078401C39490870084600780128B1
:1011000004DB00200870012035490871354800785B
:10111000401C3449087008460078022804DB00208F
:10112000087001202E4948712F480078401C2E4934
:10113000087008460078052804DB002008700120AC
:101140002749887129480078401C284908700846BA
:1011500000780A2808DB0020087021480068401C3D
:101160001F4908600120C87121480078401C2049AF
:10117000087008460078142804DB0020087001205D
:10118000174908721B480078401C1A490870084625
:101190000078322804DB00200870012010494872D2
:1011A00015480078401C14490870084600786428E7
:1011B00004DB002008700120094988720F4800787C
:1011C000401C0E49087008460078C82804DB00203F
:1011D000087001200249C872704700000400002016
:1011E0002400002005000020060000200700002049
:1011F00008000020090000200A0000200B00002049
:1012000010B540F22551054800F039F820B140F200
:101210002551024800F024F810BD000000380140BC
:1012200010B540F22551054800F029F820B140F2F0
:101230002551024800F014F810BD000000440040A1
:1012400010B540F22551054800F019F820B140F2E0
:101250002551024800F004F810BD0000004800408D
:1012600010B50022002340F66A14A14200D100BF4D
:101270000A1201249440A3B2DC43048010BD70B56F
:101280000246002400230025002040F66A16B142E1
:1012900000D100BFC1F3421501F01F03012606FA79
:1012A00003F3012D02D19689334006E0022D02D1CD
:1012B000168A334001E0968A33400C12012606FA62
:1012C00004F41688344013B10CB1012000E0002072
:1012D00070BD00BF7047FFF7ADF800BFFEE700002C
:1012E00010B591EA030F48BF83F0004300F1568325
:1012F000841A71EB030C05D2121943EB0C03001B8B
:1013000061EB0C01DFF824E14FEA1154A4EB135C0C
:101310001EEA430F18BF9EEA445F73D023EA0E0310
:10132000DCF1200E21EA045143F4801332D322FA77
:101330000CFE10EB0E0023FA0CFE41EB0E01CCF17B
:10134000200E03FA0EFE10EB0E0051F10001B1F574
:10135000801FCCF1200E32D201EB045112FA0EF2B2
:10136000BDE8104058BF7047401C38BF5FEA4202DA
:1013700018BF7047002814BF20F0010041F10001A0
:101380004FEA410313F5001F38BF7047A1F1C04178
:1013900000F0F6BA012A43EB0302ACF1200CDCF1B9
:1013A0001F0E32BF4FF0000E23FA0CF310EB0300B8
:1013B00041EB0451B4EB115FD0D0A1EB045101F526
:1013C000801149085FEA300001EB04510ED350F15F
:1013D000000038BF12FA0EFE08D1BDE81040C9E780
:1013E000401C38BF5FEA4202CAD1C3E7BDE81040E3
:1013F0004FEA410313F5001F38BF7047A1F1C04108
:1014000000F0BEBA9EEA445F08D011EA5E0FBDE864
:10141000104004BF01F0004100207047BDE81040BB
:1014200070B500F05FFA00BF64FBBE3E0000E0FF55
:101430002DE9C04130B4DFF8A0C23CEA111418BF56
:101440003CEA131400F0EC8081EA03051CEA111455
:1014500044EAD57418BF1CEA131500F0C780A4EB4A
:1014600005044FF0004545EAC12145EAC32341EA9E
:10147000505143EA525304F17F74994204F5003409
:101480004FEAC0204FEAC22208BF904200F09C8081
:101490004FEA13650FF24016765D4FEA134506FBDF
:1014A00005F7C7F1807706FB07F74FEAD737A7FBA9
:1014B00003687642C8F58038A7FB06CE38BFA8F18E
:1014C000010807FB08E64FF0000EA6FB028CE6FBC6
:1014D00003CEDCF1000CCEF1004E38BFAEF1010EB0
:1014E000A6FB0C584FF000074FF00005E6FB0E87F7
:1014F000A1FB08C6A0FB07CE16EB0E0645F10005C2
:10150000E1FB076515F1E04E7EBFA4F580345FEA8C
:1015100046066D4116F1800745F100054FEA172791
:101520004FEA066647EA0567A6F1DE46B6F1805F38
:101530004FEA15251FD9384624F0010C05EBC4717C
:10154000BCF1FE6F01EB0C1102D8F0BCBDE80081CC
:1015500024425CBF01F5801E9EEAC47F02D4F0BC29
:10156000BDE80081244238D4F0BCA1F1C041BDE8FF
:10157000004100F005BA4FEAD22242EA43524FEA54
:10158000D323A7FB02864FEAD02040EA415007FB55
:1015900003661EEA0E0F4FEAD12105FB026658BF13
:1015A000A6EB0056B6EB00564FEA520E4EEAC37E4B
:1015B00018EB0E0E56EB530EBDD518EB02085E412C
:1015C0007F1C55F10005B6E74FF480154FF000077A
:1015D0004FF000064FF00008ADE7F0BC4FF0000000
:1015E00001F1C04101F00041BDE8008111EA0C1F8A
:1015F0000CEA131500D00CE013EA0C1F00F0258054
:101600004FF00000F0BC81EA030101F00041BDE8A9
:101610000081F0BCBDE8004181EA030100F0B0B9EF
:10162000F0BCBDE8004170B500F05CF9097EFC3EFD
:1016300000F007B881EA03014FF0000001F000411B
:10164000704781EA030100F09BB9F0BCBDE800419E
:101650004FF0000021497047FFFDFBF9F7F5F4F268
:10166000F0EEEDEBE9E8E6E4E3E1E0DEDDDBDAD83D
:10167000D7D5D4D3D1D0CFCDCCCBCAC8C7C6C5C49B
:10168000C2C1C0BFBEBDBCBBBAB9B8B7B6B5B4B3B2
:10169000B2B1B0AFAEADACABAAA9A8A8A7A6A5A49D
:1016A000A3A3A2A1A09F9F9E9D9C9C9B9A99999861
:1016B0009797969595949393929191908F8F8E8E04
:1016C0008D8C8C8B8B8A8989888887878685858491
:1016D00084838382828181800000FF070000F87F7D
:1016E0004FEA1153A3F58063D3F11E03A8BFD3F1D2
:1016F000200C08DB4FF0004242EAC12252EA50526D
:1017000032FA03F0704709420BD4102BC4BF0020FB
:10171000704703F5787CBCF1FF3F05D04FF0FF30F8
:1017200070474FF00000704770B500F0DBF800BF65
:101730004992248000207047F0E710F0004248BF33
:101740004042B0FA80F310FA03F10AD0C3F11D034E
:1017500003F580634FEA415002EB035202EBD121C3
:1017600070474FF000007047B0FA80F310FA03F1B1
:101770000AD0C3F11D0303F580634FEA41504FEADD
:10178000035202EBD12170474FF000007047000078
:10179000DFF848C170B51CEA111E1EBF1CEA131504
:1017A0009EEA0C0F95EA0C0F00F06F8081EA0304AB
:1017B00023EA4C134EEAD47E21EA4C1141F4801105
:1017C00043F48013AE44A1FB024CA0FB0365AEF1D1
:1017D0007F7E361955EB0C05A1FB034C4CF1000341
:1017E000A0FB021C16EB0C06654153F100030942F5
:1017F00018BF46F0010613F4007F0BD14FEA033106
:101800004FEA0530340341EA155140EA16506FF0B3
:1018100003020AE04FEAC3214FEAC520F40241EA7D
:10182000555140EA56506FF0020202EB2E4201EB96
:10183000025585EACE710AD05FEA440C18BF24F045
:10184000004450F1000041F1000120EAD47040F260
:10185000FE7C624500D270BDA84214BF4FF08044A8
:101860004FF04044002E08BF0024BEF1806FA8BF97
:10187000A1F1C041BDE8704080F282804FF00000CD
:1018800001F1C04101F0004170479EEA0C0F0CEAE3
:10189000131518BF95EA0C0F06D04FF0000081EA2F
:1018A000030E0EF0004170BD00F01CF88900013EEF
:1018B00000F007B800F009B84FEA430C5FEA5C5C3F
:1018C00008D081EA030100F05BB84FEA410C5FEAFF
:1018D0005C5CF6D14FF00000014970470000FF0743
:1018E0000000F87F0EF1020E2EF0030E5EF8046B7E
:1018F000364205D4012A43EB030515F5001F12D823
:10190000012841EB010C1CF5001F0CD80ED14FEA49
:10191000D17C15F5001F0CEB4C0C0CF1020C08BF30
:101920004CEBD37C04E04FF0080C01E04FEAD37C91
:101930000CEB4C0526FA05F606F00706B6F1040C8A
:1019400006D20EEB860CBDE870404CF0010C6047EF
:10195000DFE80CF0090B02024FF000414FF00000ED
:10196000A1F5002170BD19461046012851EB010474
:1019700018BFD4F5001484BF002001F0004170BDF1
:101980000808A0F500114FEA3101704710B591EA3F
:10199000030F48BF83F000433FF5AAAC841A71EBF4
:1019A000030C07D212198CF0004C43EB0C03001B04
:1019B00061EB0C01DFF8A4E14FEA1154A4EB135CD6
:1019C0001EEA430F18BF9EEA445F00F0B08023EA8E
:1019D0006E03524221EA0451C3EB6E0338BF5B1E13
:1019E000DCF1200E25D322FA0CFE10EB0E0043FA98
:1019F0000CFE41EB0E01CCF1200E03FA0EFE10EBB3
:101A00000E0051F10001CCF1200E29D412FA0EF291
:101A100001EB0451BDE8104058BF7047401C1CBF8B
:101A2000B2F1004F704700280CBF491C20F00100A4
:101A3000704712EB020E43EB030218BF4FF0010E8A
:101A40004EEA4202ACF1200CDCF11E0E54D943FAEE
:101A50000CFE10EB0E0051F1FF31CCF11E0ED5D56E
:101A60000EF1010E12FA0EFE404141EB010101EBB5
:101A7000445C5FEA5C5C10D910EBDE7001EB045152
:101A800038BFBEF1004FBDE8104018BF70470028B6
:101A90000CBF491C20F00100704730D24FEAD42C13
:101AA00011F5001124F400641BD0B1FA81F20B3A55
:101AB000A41AA41ED2F12003914030FA03F3194373
:101AC000904001EBCC71002C01EB0451BDE81040BB
:101AD000A8BF704701F1C0414FF0000001F0004184
:101AE0007047B0FA80F310FA03F100D110BDE41A88
:101AF000173C4805C90AE4E701EB045110BD491041
:101B000001EB0451BDE810404FEA300002E04FF015
:101B1000000170474A0008BF0042F8D0B2F5001F2C
:101B200028BF704701F000414FF0000070479EEA67
:101B3000445F07D011EA5E0FBDE8104004BF0021EA
:101B400000207047BDE8104070B5FFF7CBFE00BF26
:101B500040DFF63E83F00041104670470000E0FF92
:101B600000400000AE4200005B4500000548000058
:101B7000AC4A00004E4D0000EA4F00007F520000CA
:101B80000C5500008F570000085A0000745C0000DC
:101B9000D55E0000276100006A6300009E650000BA
:101BA000C0670000D1690000CF6B0000B96D000074
:101BB0008F6F00004F710000FA7200008D740000FA
:101BC000097600006C770000B7780000E879000023
:101BD000FF7A0000FB7B0000DD7C0000A37D00009D
:101BE0004E7E0000DD7E00004F7F0000A57F0000DC
:101BF000DF7F0000FB7F0000FB7F0000DF7F000035
:101C0000A57F00004F7F0000DD7E00004E7E0000BB
:101C1000A37D0000DD7C0000FB7B0000FF7A00005C
:101C2000E8790000B77800006C77000009760000C2
:101C30008D740000FA7200004F7100008F6F000079
:101C4000B96D0000CF6B0000D1690000C0670000D3
:101C50009E6500006A63000027610000D55E0000F9
:101C6000745C0000085A00008F5700000C550000FB
:101C70007F520000EA4F00004E4D0000AC4A0000C9
:101C8000054800005B450000AE4200000040000037
:101C9000523D0000A53A0000FB370000543500001B
:101CA000B232000016300000812D0000F42A00003E
:101CB00071280000F82500008C2300002B21000073
:101CC000D91E0000961C0000621A00004018000097
:101CD0002F160000311400004712000071100000A0
:101CE000B10E0000060D0000730B0000F7090000A4
:101CF00094080000490700001806000001050000D4
:101D000005040000230300005D020000B201000092
:101D100023010000B10000005B0000002100000072
:101D20000500000005000000210000005B0000002D
:101D3000B100000023010000B20100005D020000BC
:101D40002303000005040000010500001806000040
:101D50004907000094080000F7090000730B000019
:101D6000060D0000B10E00007110000047120000C7
:101D7000311400002F16000040180000621A000005
:101D8000961C0000D91E00002B2100008C230000AF
:101D9000F825000071280000F42A0000812D0000C1
:101DA00016300000B232000054350000FB3700004E
:101DB000A53A0000523D0000D81D00080000002098
:101DC0002400000028010008FC1D00082400002059
:101DD0006C06000044010008420000000000000002
:101DE0000000000000000000000000000000F03FC4
:0C1DF00000000000000032006400000051
:04000005080000ED02
:00000001FF
